{
  "_format": "hh-sol-artifact-1",
  "contractName": "MyNFT",
  "sourceName": "contracts/MyNFT.sol",
  "abi": [
    {
      "inputs": [],
      "stateMutability": "nonpayable",
      "type": "constructor"
    },
    {
      "anonymous": false,
      "inputs": [
        {
          "indexed": true,
          "internalType": "address",
          "name": "account",
          "type": "address"
        },
        {
          "indexed": true,
          "internalType": "address",
          "name": "operator",
          "type": "address"
        },
        {
          "indexed": false,
          "internalType": "bool",
          "name": "approved",
          "type": "bool"
        }
      ],
      "name": "ApprovalForAll",
      "type": "event"
    },
    {
      "anonymous": false,
      "inputs": [
        {
          "indexed": true,
          "internalType": "address",
          "name": "previousOwner",
          "type": "address"
        },
        {
          "indexed": true,
          "internalType": "address",
          "name": "newOwner",
          "type": "address"
        }
      ],
      "name": "OwnershipTransferred",
      "type": "event"
    },
    {
      "anonymous": false,
      "inputs": [
        {
          "indexed": true,
          "internalType": "address",
          "name": "operator",
          "type": "address"
        },
        {
          "indexed": true,
          "internalType": "address",
          "name": "from",
          "type": "address"
        },
        {
          "indexed": true,
          "internalType": "address",
          "name": "to",
          "type": "address"
        },
        {
          "indexed": false,
          "internalType": "uint256[]",
          "name": "ids",
          "type": "uint256[]"
        },
        {
          "indexed": false,
          "internalType": "uint256[]",
          "name": "values",
          "type": "uint256[]"
        }
      ],
      "name": "TransferBatch",
      "type": "event"
    },
    {
      "anonymous": false,
      "inputs": [
        {
          "indexed": true,
          "internalType": "address",
          "name": "operator",
          "type": "address"
        },
        {
          "indexed": true,
          "internalType": "address",
          "name": "from",
          "type": "address"
        },
        {
          "indexed": true,
          "internalType": "address",
          "name": "to",
          "type": "address"
        },
        {
          "indexed": false,
          "internalType": "uint256",
          "name": "id",
          "type": "uint256"
        },
        {
          "indexed": false,
          "internalType": "uint256",
          "name": "value",
          "type": "uint256"
        }
      ],
      "name": "TransferSingle",
      "type": "event"
    },
    {
      "anonymous": false,
      "inputs": [
        {
          "indexed": false,
          "internalType": "string",
          "name": "value",
          "type": "string"
        },
        {
          "indexed": true,
          "internalType": "uint256",
          "name": "id",
          "type": "uint256"
        }
      ],
      "name": "URI",
      "type": "event"
    },
    {
      "inputs": [
        {
          "internalType": "address",
          "name": "account",
          "type": "address"
        },
        {
          "internalType": "uint256",
          "name": "id",
          "type": "uint256"
        }
      ],
      "name": "balanceOf",
      "outputs": [
        {
          "internalType": "uint256",
          "name": "",
          "type": "uint256"
        }
      ],
      "stateMutability": "view",
      "type": "function"
    },
    {
      "inputs": [
        {
          "internalType": "address[]",
          "name": "accounts",
          "type": "address[]"
        },
        {
          "internalType": "uint256[]",
          "name": "ids",
          "type": "uint256[]"
        }
      ],
      "name": "balanceOfBatch",
      "outputs": [
        {
          "internalType": "uint256[]",
          "name": "",
          "type": "uint256[]"
        }
      ],
      "stateMutability": "view",
      "type": "function"
    },
    {
      "inputs": [
        {
          "internalType": "address",
          "name": "account",
          "type": "address"
        },
        {
          "internalType": "address",
          "name": "operator",
          "type": "address"
        }
      ],
      "name": "isApprovedForAll",
      "outputs": [
        {
          "internalType": "bool",
          "name": "",
          "type": "bool"
        }
      ],
      "stateMutability": "view",
      "type": "function"
    },
    {
      "inputs": [
        {
          "internalType": "address",
          "name": "recipient",
          "type": "address"
        },
        {
          "internalType": "uint256",
          "name": "amount",
          "type": "uint256"
        },
        {
          "internalType": "bytes",
          "name": "data",
          "type": "bytes"
        }
      ],
      "name": "mintNFT",
      "outputs": [
        {
          "internalType": "uint256",
          "name": "",
          "type": "uint256"
        }
      ],
      "stateMutability": "nonpayable",
      "type": "function"
    },
    {
      "inputs": [],
      "name": "owner",
      "outputs": [
        {
          "internalType": "address",
          "name": "",
          "type": "address"
        }
      ],
      "stateMutability": "view",
      "type": "function"
    },
    {
      "inputs": [],
      "name": "renounceOwnership",
      "outputs": [],
      "stateMutability": "nonpayable",
      "type": "function"
    },
    {
      "inputs": [
        {
          "internalType": "address",
          "name": "from",
          "type": "address"
        },
        {
          "internalType": "address",
          "name": "to",
          "type": "address"
        },
        {
          "internalType": "uint256[]",
          "name": "ids",
          "type": "uint256[]"
        },
        {
          "internalType": "uint256[]",
          "name": "amounts",
          "type": "uint256[]"
        },
        {
          "internalType": "bytes",
          "name": "data",
          "type": "bytes"
        }
      ],
      "name": "safeBatchTransferFrom",
      "outputs": [],
      "stateMutability": "nonpayable",
      "type": "function"
    },
    {
      "inputs": [
        {
          "internalType": "address",
          "name": "from",
          "type": "address"
        },
        {
          "internalType": "address",
          "name": "to",
          "type": "address"
        },
        {
          "internalType": "uint256",
          "name": "id",
          "type": "uint256"
        },
        {
          "internalType": "uint256",
          "name": "amount",
          "type": "uint256"
        },
        {
          "internalType": "bytes",
          "name": "data",
          "type": "bytes"
        }
      ],
      "name": "safeTransferFrom",
      "outputs": [],
      "stateMutability": "nonpayable",
      "type": "function"
    },
    {
      "inputs": [
        {
          "internalType": "address",
          "name": "operator",
          "type": "address"
        },
        {
          "internalType": "bool",
          "name": "approved",
          "type": "bool"
        }
      ],
      "name": "setApprovalForAll",
      "outputs": [],
      "stateMutability": "nonpayable",
      "type": "function"
    },
    {
      "inputs": [
        {
          "internalType": "bytes4",
          "name": "interfaceId",
          "type": "bytes4"
        }
      ],
      "name": "supportsInterface",
      "outputs": [
        {
          "internalType": "bool",
          "name": "",
          "type": "bool"
        }
      ],
      "stateMutability": "view",
      "type": "function"
    },
    {
      "inputs": [
        {
          "internalType": "address",
          "name": "newOwner",
          "type": "address"
        }
      ],
      "name": "transferOwnership",
      "outputs": [],
      "stateMutability": "nonpayable",
      "type": "function"
    },
    {
      "inputs": [
        {
          "internalType": "uint256",
          "name": "tokenId",
          "type": "uint256"
        }
      ],
      "name": "uri",
      "outputs": [
        {
          "internalType": "string",
          "name": "",
          "type": "string"
        }
      ],
      "stateMutability": "view",
      "type": "function"
    }
  ],
  "bytecode": "0x608060405260405180602001604052806000815250600390805190602001906200002b92919062000176565b503480156200003957600080fd5b506040518060a0016040528060628152602001620031536062913962000065816200008c60201b60201c565b50620000866200007a620000a860201b60201c565b620000b060201b60201c565b6200028b565b8060029080519060200190620000a492919062000176565b5050565b600033905090565b6000600560009054906101000a900473ffffffffffffffffffffffffffffffffffffffff16905081600560006101000a81548173ffffffffffffffffffffffffffffffffffffffff021916908373ffffffffffffffffffffffffffffffffffffffff1602179055508173ffffffffffffffffffffffffffffffffffffffff168173ffffffffffffffffffffffffffffffffffffffff167f8be0079c531659141344cd1fd0a4f28419497f9722a3daafe3b4186f6b6457e060405160405180910390a35050565b828054620001849062000226565b90600052602060002090601f016020900481019282620001a85760008555620001f4565b82601f10620001c357805160ff1916838001178555620001f4565b82800160010185558215620001f4579182015b82811115620001f3578251825591602001919060010190620001d6565b5b50905062000203919062000207565b5090565b5b808211156200022257600081600090555060010162000208565b5090565b600060028204905060018216806200023f57607f821691505b602082108114156200025657620002556200025c565b5b50919050565b7f4e487b7100000000000000000000000000000000000000000000000000000000600052602260045260246000fd5b612eb8806200029b6000396000f3fe608060405234801561001057600080fd5b50600436106100b35760003560e01c806389d6ad041161007157806389d6ad041461019e5780638da5cb5b146101ce578063a22cb465146101ec578063e985e9c514610208578063f242432a14610238578063f2fde38b14610254576100b3565b8062fdd58e146100b857806301ffc9a7146100e85780630e89341c146101185780632eb2c2d6146101485780634e1273f414610164578063715018a614610194575b600080fd5b6100d260048036038101906100cd9190611de1565b610270565b6040516100df91906125fa565b60405180910390f35b61010260048036038101906100fd9190611ef0565b610339565b60405161010f919061243d565b60405180910390f35b610132600480360381019061012d9190611f42565b61041b565b60405161013f9190612458565b60405180910390f35b610162600480360381019061015d9190611c57565b610500565b005b61017e60048036038101906101799190611e84565b6105a1565b60405161018b91906123e4565b60405180910390f35b61019c610752565b005b6101b860048036038101906101b39190611e1d565b610766565b6040516101c591906125fa565b60405180910390f35b6101d661079f565b6040516101e39190612307565b60405180910390f35b61020660048036038101906102019190611da5565b6107c9565b005b610222600480360381019061021d9190611c1b565b6107df565b60405161022f919061243d565b60405180910390f35b610252600480360381019061024d9190611d16565b610873565b005b61026e60048036038101906102699190611bf2565b610914565b005b60008073ffffffffffffffffffffffffffffffffffffffff168373ffffffffffffffffffffffffffffffffffffffff1614156102e1576040517f08c379a00000000000000000000000000000000000000000000000000000000081526004016102d8906124ba565b60405180910390fd5b60008083815260200190815260200160002060008473ffffffffffffffffffffffffffffffffffffffff1673ffffffffffffffffffffffffffffffffffffffff16815260200190815260200160002054905092915050565b60007fd9b67a26000000000000000000000000000000000000000000000000000000007bffffffffffffffffffffffffffffffffffffffffffffffffffffffff1916827bffffffffffffffffffffffffffffffffffffffffffffffffffffffff1916148061040457507f0e89341c000000000000000000000000000000000000000000000000000000007bffffffffffffffffffffffffffffffffffffffffffffffffffffffff1916827bffffffffffffffffffffffffffffffffffffffffffffffffffffffff1916145b80610414575061041382610998565b5b9050919050565b6060600060046000848152602001908152602001600020805461043d90612889565b80601f016020809104026020016040519081016040528092919081815260200182805461046990612889565b80156104b65780601f1061048b576101008083540402835291602001916104b6565b820191906000526020600020905b81548152906001019060200180831161049957829003601f168201915b5050505050905060008151116104d4576104cf83610a02565b6104f8565b6003816040516020016104e89291906122e3565b6040516020818303038152906040525b915050919050565b610508610a96565b73ffffffffffffffffffffffffffffffffffffffff168573ffffffffffffffffffffffffffffffffffffffff16148061054e575061054d85610548610a96565b6107df565b5b61058d576040517f08c379a0000000000000000000000000000000000000000000000000000000008152600401610584906124da565b60405180910390fd5b61059a8585858585610a9e565b5050505050565b606081518351146105e7576040517f08c379a00000000000000000000000000000000000000000000000000000000081526004016105de9061257a565b60405180910390fd5b6000835167ffffffffffffffff81111561062a577f4e487b7100000000000000000000000000000000000000000000000000000000600052604160045260246000fd5b6040519080825280602002602001820160405280156106585781602001602082028036833780820191505090505b50905060005b8451811015610747576106f18582815181106106a3577f4e487b7100000000000000000000000000000000000000000000000000000000600052603260045260246000fd5b60200260200101518583815181106106e4577f4e487b7100000000000000000000000000000000000000000000000000000000600052603260045260246000fd5b6020026020010151610270565b82828151811061072a577f4e487b7100000000000000000000000000000000000000000000000000000000600052603260045260246000fd5b60200260200101818152505080610740906128ec565b905061065e565b508091505092915050565b61075a610e0c565b6107646000610e8a565b565b6000610770610e0c565b61077a6006610f50565b60006107866006610f66565b905061079485828686610f74565b809150509392505050565b6000600560009054906101000a900473ffffffffffffffffffffffffffffffffffffffff16905090565b6107db6107d4610a96565b8383611125565b5050565b6000600160008473ffffffffffffffffffffffffffffffffffffffff1673ffffffffffffffffffffffffffffffffffffffff16815260200190815260200160002060008373ffffffffffffffffffffffffffffffffffffffff1673ffffffffffffffffffffffffffffffffffffffff16815260200190815260200160002060009054906101000a900460ff16905092915050565b61087b610a96565b73ffffffffffffffffffffffffffffffffffffffff168573ffffffffffffffffffffffffffffffffffffffff1614806108c157506108c0856108bb610a96565b6107df565b5b610900576040517f08c379a00000000000000000000000000000000000000000000000000000000081526004016108f7906124da565b60405180910390fd5b61090d8585858585611292565b5050505050565b61091c610e0c565b600073ffffffffffffffffffffffffffffffffffffffff168173ffffffffffffffffffffffffffffffffffffffff16141561098c576040517f08c379a00000000000000000000000000000000000000000000000000000000081526004016109839061249a565b60405180910390fd5b61099581610e8a565b50565b60007f01ffc9a7000000000000000000000000000000000000000000000000000000007bffffffffffffffffffffffffffffffffffffffffffffffffffffffff1916827bffffffffffffffffffffffffffffffffffffffffffffffffffffffff1916149050919050565b606060028054610a1190612889565b80601f0160208091040260200160405190810160405280929190818152602001828054610a3d90612889565b8015610a8a5780601f10610a5f57610100808354040283529160200191610a8a565b820191906000526020600020905b815481529060010190602001808311610a6d57829003601f168201915b50505050509050919050565b600033905090565b8151835114610ae2576040517f08c379a0000000000000000000000000000000000000000000000000000000008152600401610ad99061259a565b60405180910390fd5b600073ffffffffffffffffffffffffffffffffffffffff168473ffffffffffffffffffffffffffffffffffffffff161415610b52576040517f08c379a0000000000000000000000000000000000000000000000000000000008152600401610b49906124fa565b60405180910390fd5b6000610b5c610a96565b9050610b6c81878787878761152e565b60005b8451811015610d69576000858281518110610bb3577f4e487b7100000000000000000000000000000000000000000000000000000000600052603260045260246000fd5b602002602001015190506000858381518110610bf8577f4e487b7100000000000000000000000000000000000000000000000000000000600052603260045260246000fd5b60200260200101519050600080600084815260200190815260200160002060008b73ffffffffffffffffffffffffffffffffffffffff1673ffffffffffffffffffffffffffffffffffffffff16815260200190815260200160002054905081811015610c99576040517f08c379a0000000000000000000000000000000000000000000000000000000008152600401610c909061251a565b60405180910390fd5b81810360008085815260200190815260200160002060008c73ffffffffffffffffffffffffffffffffffffffff1673ffffffffffffffffffffffffffffffffffffffff168152602001908152602001600020819055508160008085815260200190815260200160002060008b73ffffffffffffffffffffffffffffffffffffffff1673ffffffffffffffffffffffffffffffffffffffff1681526020019081526020016000206000828254610d4e919061277d565b9250508190555050505080610d62906128ec565b9050610b6f565b508473ffffffffffffffffffffffffffffffffffffffff168673ffffffffffffffffffffffffffffffffffffffff168273ffffffffffffffffffffffffffffffffffffffff167f4a39dc06d4c0dbc64b70af90fd698a233a518aa5d07e595d983b8c0526c8f7fb8787604051610de0929190612406565b60405180910390a4610df6818787878787611536565b610e0481878787878761153e565b505050505050565b610e14610a96565b73ffffffffffffffffffffffffffffffffffffffff16610e3261079f565b73ffffffffffffffffffffffffffffffffffffffff1614610e88576040517f08c379a0000000000000000000000000000000000000000000000000000000008152600401610e7f9061253a565b60405180910390fd5b565b6000600560009054906101000a900473ffffffffffffffffffffffffffffffffffffffff16905081600560006101000a81548173ffffffffffffffffffffffffffffffffffffffff021916908373ffffffffffffffffffffffffffffffffffffffff1602179055508173ffffffffffffffffffffffffffffffffffffffff168173ffffffffffffffffffffffffffffffffffffffff167f8be0079c531659141344cd1fd0a4f28419497f9722a3daafe3b4186f6b6457e060405160405180910390a35050565b6001816000016000828254019250508190555050565b600081600001549050919050565b600073ffffffffffffffffffffffffffffffffffffffff168473ffffffffffffffffffffffffffffffffffffffff161415610fe4576040517f08c379a0000000000000000000000000000000000000000000000000000000008152600401610fdb906125ba565b60405180910390fd5b6000610fee610a96565b90506000610ffb85611725565b9050600061100885611725565b90506110198360008985858961152e565b8460008088815260200190815260200160002060008973ffffffffffffffffffffffffffffffffffffffff1673ffffffffffffffffffffffffffffffffffffffff1681526020019081526020016000206000828254611078919061277d565b925050819055508673ffffffffffffffffffffffffffffffffffffffff16600073ffffffffffffffffffffffffffffffffffffffff168473ffffffffffffffffffffffffffffffffffffffff167fc3d58168c5ae7397731d063d5bbf3d657854427343f4c083240f7aacaa2d0f6289896040516110f6929190612615565b60405180910390a461110d83600089858589611536565b61111c836000898989896117eb565b50505050505050565b8173ffffffffffffffffffffffffffffffffffffffff168373ffffffffffffffffffffffffffffffffffffffff161415611194576040517f08c379a000000000000000000000000000000000000000000000000000000000815260040161118b9061255a565b60405180910390fd5b80600160008573ffffffffffffffffffffffffffffffffffffffff1673ffffffffffffffffffffffffffffffffffffffff16815260200190815260200160002060008473ffffffffffffffffffffffffffffffffffffffff1673ffffffffffffffffffffffffffffffffffffffff16815260200190815260200160002060006101000a81548160ff0219169083151502179055508173ffffffffffffffffffffffffffffffffffffffff168373ffffffffffffffffffffffffffffffffffffffff167f17307eab39ab6107e8899845ad3d59bd9653f200f220920489ca2b5937696c3183604051611285919061243d565b60405180910390a3505050565b600073ffffffffffffffffffffffffffffffffffffffff168473ffffffffffffffffffffffffffffffffffffffff161415611302576040517f08c379a00000000000000000000000000000000000000000000000000000000081526004016112f9906124fa565b60405180910390fd5b600061130c610a96565b9050600061131985611725565b9050600061132685611725565b905061133683898985858961152e565b600080600088815260200190815260200160002060008a73ffffffffffffffffffffffffffffffffffffffff1673ffffffffffffffffffffffffffffffffffffffff168152602001908152602001600020549050858110156113cd576040517f08c379a00000000000000000000000000000000000000000000000000000000081526004016113c49061251a565b60405180910390fd5b85810360008089815260200190815260200160002060008b73ffffffffffffffffffffffffffffffffffffffff1673ffffffffffffffffffffffffffffffffffffffff168152602001908152602001600020819055508560008089815260200190815260200160002060008a73ffffffffffffffffffffffffffffffffffffffff1673ffffffffffffffffffffffffffffffffffffffff1681526020019081526020016000206000828254611482919061277d565b925050819055508773ffffffffffffffffffffffffffffffffffffffff168973ffffffffffffffffffffffffffffffffffffffff168573ffffffffffffffffffffffffffffffffffffffff167fc3d58168c5ae7397731d063d5bbf3d657854427343f4c083240f7aacaa2d0f628a8a6040516114ff929190612615565b60405180910390a4611515848a8a86868a611536565b611523848a8a8a8a8a6117eb565b505050505050505050565b505050505050565b505050505050565b61155d8473ffffffffffffffffffffffffffffffffffffffff166119d2565b1561171d578373ffffffffffffffffffffffffffffffffffffffff1663bc197c8187878686866040518663ffffffff1660e01b81526004016115a3959493929190612322565b602060405180830381600087803b1580156115bd57600080fd5b505af19250505080156115ee57506040513d601f19601f820116820180604052508101906115eb9190611f19565b60015b611694576115fa6129c2565b806308c379a01415611657575061160f612d90565b8061161a5750611659565b806040517f08c379a000000000000000000000000000000000000000000000000000000000815260040161164e9190612458565b60405180910390fd5b505b6040517f08c379a000000000000000000000000000000000000000000000000000000000815260040161168b906125da565b60405180910390fd5b63bc197c8160e01b7bffffffffffffffffffffffffffffffffffffffffffffffffffffffff1916817bffffffffffffffffffffffffffffffffffffffffffffffffffffffff19161461171b576040517f08c379a00000000000000000000000000000000000000000000000000000000081526004016117129061247a565b60405180910390fd5b505b505050505050565b60606000600167ffffffffffffffff81111561176a577f4e487b7100000000000000000000000000000000000000000000000000000000600052604160045260246000fd5b6040519080825280602002602001820160405280156117985781602001602082028036833780820191505090505b50905082816000815181106117d6577f4e487b7100000000000000000000000000000000000000000000000000000000600052603260045260246000fd5b60200260200101818152505080915050919050565b61180a8473ffffffffffffffffffffffffffffffffffffffff166119d2565b156119ca578373ffffffffffffffffffffffffffffffffffffffff1663f23a6e6187878686866040518663ffffffff1660e01b815260040161185095949392919061238a565b602060405180830381600087803b15801561186a57600080fd5b505af192505050801561189b57506040513d601f19601f820116820180604052508101906118989190611f19565b60015b611941576118a76129c2565b806308c379a0141561190457506118bc612d90565b806118c75750611906565b806040517f08c379a00000000000000000000000000000000000000000000000000000000081526004016118fb9190612458565b60405180910390fd5b505b6040517f08c379a0000000000000000000000000000000000000000000000000000000008152600401611938906125da565b60405180910390fd5b63f23a6e6160e01b7bffffffffffffffffffffffffffffffffffffffffffffffffffffffff1916817bffffffffffffffffffffffffffffffffffffffffffffffffffffffff1916146119c8576040517f08c379a00000000000000000000000000000000000000000000000000000000081526004016119bf9061247a565b60405180910390fd5b505b505050505050565b6000808273ffffffffffffffffffffffffffffffffffffffff163b119050919050565b6000611a08611a0384612663565b61263e565b90508083825260208201905082856020860282011115611a2757600080fd5b60005b85811015611a575781611a3d8882611b0b565b845260208401935060208301925050600181019050611a2a565b5050509392505050565b6000611a74611a6f8461268f565b61263e565b90508083825260208201905082856020860282011115611a9357600080fd5b60005b85811015611ac35781611aa98882611bdd565b845260208401935060208301925050600181019050611a96565b5050509392505050565b6000611ae0611adb846126bb565b61263e565b905082815260208101848484011115611af857600080fd5b611b03848285612847565b509392505050565b600081359050611b1a81612e26565b92915050565b600082601f830112611b3157600080fd5b8135611b418482602086016119f5565b91505092915050565b600082601f830112611b5b57600080fd5b8135611b6b848260208601611a61565b91505092915050565b600081359050611b8381612e3d565b92915050565b600081359050611b9881612e54565b92915050565b600081519050611bad81612e54565b92915050565b600082601f830112611bc457600080fd5b8135611bd4848260208601611acd565b91505092915050565b600081359050611bec81612e6b565b92915050565b600060208284031215611c0457600080fd5b6000611c1284828501611b0b565b91505092915050565b60008060408385031215611c2e57600080fd5b6000611c3c85828601611b0b565b9250506020611c4d85828601611b0b565b9150509250929050565b600080600080600060a08688031215611c6f57600080fd5b6000611c7d88828901611b0b565b9550506020611c8e88828901611b0b565b945050604086013567ffffffffffffffff811115611cab57600080fd5b611cb788828901611b4a565b935050606086013567ffffffffffffffff811115611cd457600080fd5b611ce088828901611b4a565b925050608086013567ffffffffffffffff811115611cfd57600080fd5b611d0988828901611bb3565b9150509295509295909350565b600080600080600060a08688031215611d2e57600080fd5b6000611d3c88828901611b0b565b9550506020611d4d88828901611b0b565b9450506040611d5e88828901611bdd565b9350506060611d6f88828901611bdd565b925050608086013567ffffffffffffffff811115611d8c57600080fd5b611d9888828901611bb3565b9150509295509295909350565b60008060408385031215611db857600080fd5b6000611dc685828601611b0b565b9250506020611dd785828601611b74565b9150509250929050565b60008060408385031215611df457600080fd5b6000611e0285828601611b0b565b9250506020611e1385828601611bdd565b9150509250929050565b600080600060608486031215611e3257600080fd5b6000611e4086828701611b0b565b9350506020611e5186828701611bdd565b925050604084013567ffffffffffffffff811115611e6e57600080fd5b611e7a86828701611bb3565b9150509250925092565b60008060408385031215611e9757600080fd5b600083013567ffffffffffffffff811115611eb157600080fd5b611ebd85828601611b20565b925050602083013567ffffffffffffffff811115611eda57600080fd5b611ee685828601611b4a565b9150509250929050565b600060208284031215611f0257600080fd5b6000611f1084828501611b89565b91505092915050565b600060208284031215611f2b57600080fd5b6000611f3984828501611b9e565b91505092915050565b600060208284031215611f5457600080fd5b6000611f6284828501611bdd565b91505092915050565b6000611f7783836122c5565b60208301905092915050565b611f8c816127d3565b82525050565b6000611f9d82612711565b611fa7818561273f565b9350611fb2836126ec565b8060005b83811015611fe3578151611fca8882611f6b565b9750611fd583612732565b925050600181019050611fb6565b5085935050505092915050565b611ff9816127e5565b82525050565b600061200a8261271c565b6120148185612750565b9350612024818560208601612856565b61202d816129e4565b840191505092915050565b600061204382612727565b61204d8185612761565b935061205d818560208601612856565b612066816129e4565b840191505092915050565b600061207c82612727565b6120868185612772565b9350612096818560208601612856565b80840191505092915050565b600081546120af81612889565b6120b98186612772565b945060018216600081146120d457600181146120e557612118565b60ff19831686528186019350612118565b6120ee856126fc565b60005b83811015612110578154818901526001820191506020810190506120f1565b838801955050505b50505092915050565b600061212e602883612761565b915061213982612a02565b604082019050919050565b6000612151602683612761565b915061215c82612a51565b604082019050919050565b6000612174602a83612761565b915061217f82612aa0565b604082019050919050565b6000612197602e83612761565b91506121a282612aef565b604082019050919050565b60006121ba602583612761565b91506121c582612b3e565b604082019050919050565b60006121dd602a83612761565b91506121e882612b8d565b604082019050919050565b6000612200602083612761565b915061220b82612bdc565b602082019050919050565b6000612223602983612761565b915061222e82612c05565b604082019050919050565b6000612246602983612761565b915061225182612c54565b604082019050919050565b6000612269602883612761565b915061227482612ca3565b604082019050919050565b600061228c602183612761565b915061229782612cf2565b604082019050919050565b60006122af603483612761565b91506122ba82612d41565b604082019050919050565b6122ce8161283d565b82525050565b6122dd8161283d565b82525050565b60006122ef82856120a2565b91506122fb8284612071565b91508190509392505050565b600060208201905061231c6000830184611f83565b92915050565b600060a0820190506123376000830188611f83565b6123446020830187611f83565b81810360408301526123568186611f92565b9050818103606083015261236a8185611f92565b9050818103608083015261237e8184611fff565b90509695505050505050565b600060a08201905061239f6000830188611f83565b6123ac6020830187611f83565b6123b960408301866122d4565b6123c660608301856122d4565b81810360808301526123d88184611fff565b90509695505050505050565b600060208201905081810360008301526123fe8184611f92565b905092915050565b600060408201905081810360008301526124208185611f92565b905081810360208301526124348184611f92565b90509392505050565b60006020820190506124526000830184611ff0565b92915050565b600060208201905081810360008301526124728184612038565b905092915050565b6000602082019050818103600083015261249381612121565b9050919050565b600060208201905081810360008301526124b381612144565b9050919050565b600060208201905081810360008301526124d381612167565b9050919050565b600060208201905081810360008301526124f38161218a565b9050919050565b60006020820190508181036000830152612513816121ad565b9050919050565b60006020820190508181036000830152612533816121d0565b9050919050565b60006020820190508181036000830152612553816121f3565b9050919050565b6000602082019050818103600083015261257381612216565b9050919050565b6000602082019050818103600083015261259381612239565b9050919050565b600060208201905081810360008301526125b38161225c565b9050919050565b600060208201905081810360008301526125d38161227f565b9050919050565b600060208201905081810360008301526125f3816122a2565b9050919050565b600060208201905061260f60008301846122d4565b92915050565b600060408201905061262a60008301856122d4565b61263760208301846122d4565b9392505050565b6000612648612659565b905061265482826128bb565b919050565b6000604051905090565b600067ffffffffffffffff82111561267e5761267d612993565b5b602082029050602081019050919050565b600067ffffffffffffffff8211156126aa576126a9612993565b5b602082029050602081019050919050565b600067ffffffffffffffff8211156126d6576126d5612993565b5b6126df826129e4565b9050602081019050919050565b6000819050602082019050919050565b60008190508160005260206000209050919050565b600081519050919050565b600081519050919050565b600081519050919050565b6000602082019050919050565b600082825260208201905092915050565b600082825260208201905092915050565b600082825260208201905092915050565b600081905092915050565b60006127888261283d565b91506127938361283d565b9250827fffffffffffffffffffffffffffffffffffffffffffffffffffffffffffffffff038211156127c8576127c7612935565b5b828201905092915050565b60006127de8261281d565b9050919050565b60008115159050919050565b60007fffffffff0000000000000000000000000000000000000000000000000000000082169050919050565b600073ffffffffffffffffffffffffffffffffffffffff82169050919050565b6000819050919050565b82818337600083830152505050565b60005b83811015612874578082015181840152602081019050612859565b83811115612883576000848401525b50505050565b600060028204905060018216806128a157607f821691505b602082108114156128b5576128b4612964565b5b50919050565b6128c4826129e4565b810181811067ffffffffffffffff821117156128e3576128e2612993565b5b80604052505050565b60006128f78261283d565b91507fffffffffffffffffffffffffffffffffffffffffffffffffffffffffffffffff82141561292a57612929612935565b5b600182019050919050565b7f4e487b7100000000000000000000000000000000000000000000000000000000600052601160045260246000fd5b7f4e487b7100000000000000000000000000000000000000000000000000000000600052602260045260246000fd5b7f4e487b7100000000000000000000000000000000000000000000000000000000600052604160045260246000fd5b600060033d11156129e15760046000803e6129de6000516129f5565b90505b90565b6000601f19601f8301169050919050565b60008160e01c9050919050565b7f455243313135353a204552433131353552656365697665722072656a6563746560008201527f6420746f6b656e73000000000000000000000000000000000000000000000000602082015250565b7f4f776e61626c653a206e6577206f776e657220697320746865207a65726f206160008201527f6464726573730000000000000000000000000000000000000000000000000000602082015250565b7f455243313135353a2061646472657373207a65726f206973206e6f742061207660008201527f616c6964206f776e657200000000000000000000000000000000000000000000602082015250565b7f455243313135353a2063616c6c6572206973206e6f7420746f6b656e206f776e60008201527f6572206f7220617070726f766564000000000000000000000000000000000000602082015250565b7f455243313135353a207472616e7366657220746f20746865207a65726f20616460008201527f6472657373000000000000000000000000000000000000000000000000000000602082015250565b7f455243313135353a20696e73756666696369656e742062616c616e636520666f60008201527f72207472616e7366657200000000000000000000000000000000000000000000602082015250565b7f4f776e61626c653a2063616c6c6572206973206e6f7420746865206f776e6572600082015250565b7f455243313135353a2073657474696e6720617070726f76616c2073746174757360008201527f20666f722073656c660000000000000000000000000000000000000000000000602082015250565b7f455243313135353a206163636f756e747320616e6420696473206c656e67746860008201527f206d69736d617463680000000000000000000000000000000000000000000000602082015250565b7f455243313135353a2069647320616e6420616d6f756e7473206c656e6774682060008201527f6d69736d61746368000000000000000000000000000000000000000000000000602082015250565b7f455243313135353a206d696e7420746f20746865207a65726f2061646472657360008201527f7300000000000000000000000000000000000000000000000000000000000000602082015250565b7f455243313135353a207472616e7366657220746f206e6f6e2d4552433131353560008201527f526563656976657220696d706c656d656e746572000000000000000000000000602082015250565b600060443d1015612da057612e23565b612da8612659565b60043d036004823e80513d602482011167ffffffffffffffff82111715612dd0575050612e23565b808201805167ffffffffffffffff811115612dee5750505050612e23565b80602083010160043d038501811115612e0b575050505050612e23565b612e1a826020018501866128bb565b82955050505050505b90565b612e2f816127d3565b8114612e3a57600080fd5b50565b612e46816127e5565b8114612e5157600080fd5b50565b612e5d816127f1565b8114612e6857600080fd5b50565b612e748161283d565b8114612e7f57600080fd5b5056fea264697066735822122033f6c92c598fcf370d2c019319b3e37ddb9a33e277ebf55c0887db297815b4b764736f6c6343000801003368747470733a2f2f726f73652d656c6563747269632d70616e64612d3238312e6d7970696e6174612e636c6f75642f697066732f516d586d56714d3841756d317078416d54485244756f416d5173786b533665364e427a3954484d4a4e7031574c34",
  "linkReferences": {},
  "deployedLinkReferences": {}
}