{
  "_format": "hh-sol-artifact-1",
  "contractName": "MyNFT",
  "sourceName": "contracts/MyNFT.sol",
  "abi": [
    {
      "inputs": [],
      "stateMutability": "nonpayable",
      "type": "constructor"
    },
    {
      "anonymous": false,
      "inputs": [
        {
          "indexed": true,
          "internalType": "address",
          "name": "account",
          "type": "address"
        },
        {
          "indexed": true,
          "internalType": "address",
          "name": "operator",
          "type": "address"
        },
        {
          "indexed": false,
          "internalType": "bool",
          "name": "approved",
          "type": "bool"
        }
      ],
      "name": "ApprovalForAll",
      "type": "event"
    },
    {
      "anonymous": false,
      "inputs": [
        {
          "indexed": true,
          "internalType": "address",
          "name": "previousOwner",
          "type": "address"
        },
        {
          "indexed": true,
          "internalType": "address",
          "name": "newOwner",
          "type": "address"
        }
      ],
      "name": "OwnershipTransferred",
      "type": "event"
    },
    {
      "anonymous": false,
      "inputs": [
        {
          "indexed": true,
          "internalType": "address",
          "name": "operator",
          "type": "address"
        },
        {
          "indexed": true,
          "internalType": "address",
          "name": "from",
          "type": "address"
        },
        {
          "indexed": true,
          "internalType": "address",
          "name": "to",
          "type": "address"
        },
        {
          "indexed": false,
          "internalType": "uint256[]",
          "name": "ids",
          "type": "uint256[]"
        },
        {
          "indexed": false,
          "internalType": "uint256[]",
          "name": "values",
          "type": "uint256[]"
        }
      ],
      "name": "TransferBatch",
      "type": "event"
    },
    {
      "anonymous": false,
      "inputs": [
        {
          "indexed": true,
          "internalType": "address",
          "name": "operator",
          "type": "address"
        },
        {
          "indexed": true,
          "internalType": "address",
          "name": "from",
          "type": "address"
        },
        {
          "indexed": true,
          "internalType": "address",
          "name": "to",
          "type": "address"
        },
        {
          "indexed": false,
          "internalType": "uint256",
          "name": "id",
          "type": "uint256"
        },
        {
          "indexed": false,
          "internalType": "uint256",
          "name": "value",
          "type": "uint256"
        }
      ],
      "name": "TransferSingle",
      "type": "event"
    },
    {
      "anonymous": false,
      "inputs": [
        {
          "indexed": false,
          "internalType": "string",
          "name": "value",
          "type": "string"
        },
        {
          "indexed": true,
          "internalType": "uint256",
          "name": "id",
          "type": "uint256"
        }
      ],
      "name": "URI",
      "type": "event"
    },
    {
      "inputs": [
        {
          "internalType": "address",
          "name": "account",
          "type": "address"
        },
        {
          "internalType": "uint256",
          "name": "id",
          "type": "uint256"
        }
      ],
      "name": "balanceOf",
      "outputs": [
        {
          "internalType": "uint256",
          "name": "",
          "type": "uint256"
        }
      ],
      "stateMutability": "view",
      "type": "function"
    },
    {
      "inputs": [
        {
          "internalType": "address[]",
          "name": "accounts",
          "type": "address[]"
        },
        {
          "internalType": "uint256[]",
          "name": "ids",
          "type": "uint256[]"
        }
      ],
      "name": "balanceOfBatch",
      "outputs": [
        {
          "internalType": "uint256[]",
          "name": "",
          "type": "uint256[]"
        }
      ],
      "stateMutability": "view",
      "type": "function"
    },
    {
      "inputs": [
        {
          "internalType": "address",
          "name": "account",
          "type": "address"
        },
        {
          "internalType": "address",
          "name": "operator",
          "type": "address"
        }
      ],
      "name": "isApprovedForAll",
      "outputs": [
        {
          "internalType": "bool",
          "name": "",
          "type": "bool"
        }
      ],
      "stateMutability": "view",
      "type": "function"
    },
    {
      "inputs": [
        {
          "internalType": "address",
          "name": "recipient",
          "type": "address"
        },
        {
          "internalType": "uint256",
          "name": "amount",
          "type": "uint256"
        },
        {
          "internalType": "bytes",
          "name": "data",
          "type": "bytes"
        }
      ],
      "name": "mintNFT",
      "outputs": [
        {
          "internalType": "uint256",
          "name": "",
          "type": "uint256"
        }
      ],
      "stateMutability": "nonpayable",
      "type": "function"
    },
    {
      "inputs": [],
      "name": "owner",
      "outputs": [
        {
          "internalType": "address",
          "name": "",
          "type": "address"
        }
      ],
      "stateMutability": "view",
      "type": "function"
    },
    {
      "inputs": [],
      "name": "renounceOwnership",
      "outputs": [],
      "stateMutability": "nonpayable",
      "type": "function"
    },
    {
      "inputs": [
        {
          "internalType": "address",
          "name": "from",
          "type": "address"
        },
        {
          "internalType": "address",
          "name": "to",
          "type": "address"
        },
        {
          "internalType": "uint256[]",
          "name": "ids",
          "type": "uint256[]"
        },
        {
          "internalType": "uint256[]",
          "name": "amounts",
          "type": "uint256[]"
        },
        {
          "internalType": "bytes",
          "name": "data",
          "type": "bytes"
        }
      ],
      "name": "safeBatchTransferFrom",
      "outputs": [],
      "stateMutability": "nonpayable",
      "type": "function"
    },
    {
      "inputs": [
        {
          "internalType": "address",
          "name": "from",
          "type": "address"
        },
        {
          "internalType": "address",
          "name": "to",
          "type": "address"
        },
        {
          "internalType": "uint256",
          "name": "id",
          "type": "uint256"
        },
        {
          "internalType": "uint256",
          "name": "amount",
          "type": "uint256"
        },
        {
          "internalType": "bytes",
          "name": "data",
          "type": "bytes"
        }
      ],
      "name": "safeTransferFrom",
      "outputs": [],
      "stateMutability": "nonpayable",
      "type": "function"
    },
    {
      "inputs": [
        {
          "internalType": "address",
          "name": "operator",
          "type": "address"
        },
        {
          "internalType": "bool",
          "name": "approved",
          "type": "bool"
        }
      ],
      "name": "setApprovalForAll",
      "outputs": [],
      "stateMutability": "nonpayable",
      "type": "function"
    },
    {
      "inputs": [
        {
          "internalType": "bytes4",
          "name": "interfaceId",
          "type": "bytes4"
        }
      ],
      "name": "supportsInterface",
      "outputs": [
        {
          "internalType": "bool",
          "name": "",
          "type": "bool"
        }
      ],
      "stateMutability": "view",
      "type": "function"
    },
    {
      "inputs": [
        {
          "internalType": "address",
          "name": "newOwner",
          "type": "address"
        }
      ],
      "name": "transferOwnership",
      "outputs": [],
      "stateMutability": "nonpayable",
      "type": "function"
    },
    {
      "inputs": [
        {
          "internalType": "uint256",
          "name": "",
          "type": "uint256"
        }
      ],
      "name": "uri",
      "outputs": [
        {
          "internalType": "string",
          "name": "",
          "type": "string"
        }
      ],
      "stateMutability": "view",
      "type": "function"
    }
  ],
  "bytecode": "0x60806040523480156200001157600080fd5b506040518060600160405280602a815260200162002f52602a91396200003d816200006460201b60201c565b506200005e620000526200008060201b60201c565b6200008860201b60201c565b62000263565b80600290805190602001906200007c9291906200014e565b5050565b600033905090565b6000600360009054906101000a900473ffffffffffffffffffffffffffffffffffffffff16905081600360006101000a81548173ffffffffffffffffffffffffffffffffffffffff021916908373ffffffffffffffffffffffffffffffffffffffff1602179055508173ffffffffffffffffffffffffffffffffffffffff168173ffffffffffffffffffffffffffffffffffffffff167f8be0079c531659141344cd1fd0a4f28419497f9722a3daafe3b4186f6b6457e060405160405180910390a35050565b8280546200015c90620001fe565b90600052602060002090601f016020900481019282620001805760008555620001cc565b82601f106200019b57805160ff1916838001178555620001cc565b82800160010185558215620001cc579182015b82811115620001cb578251825591602001919060010190620001ae565b5b509050620001db9190620001df565b5090565b5b80821115620001fa576000816000905550600101620001e0565b5090565b600060028204905060018216806200021757607f821691505b602082108114156200022e576200022d62000234565b5b50919050565b7f4e487b7100000000000000000000000000000000000000000000000000000000600052602260045260246000fd5b612cdf80620002736000396000f3fe608060405234801561001057600080fd5b50600436106100b35760003560e01c806389d6ad041161007157806389d6ad041461019e5780638da5cb5b146101ce578063a22cb465146101ec578063e985e9c514610208578063f242432a14610238578063f2fde38b14610254576100b3565b8062fdd58e146100b857806301ffc9a7146100e85780630e89341c146101185780632eb2c2d6146101485780634e1273f414610164578063715018a614610194575b600080fd5b6100d260048036038101906100cd9190611cfc565b610270565b6040516100df9190612441565b60405180910390f35b61010260048036038101906100fd9190611e0b565b610339565b60405161010f9190612284565b60405180910390f35b610132600480360381019061012d9190611e5d565b61041b565b60405161013f919061229f565b60405180910390f35b610162600480360381019061015d9190611b72565b6104af565b005b61017e60048036038101906101799190611d9f565b610550565b60405161018b919061222b565b60405180910390f35b61019c610701565b005b6101b860048036038101906101b39190611d38565b610715565b6040516101c59190612441565b60405180910390f35b6101d661074e565b6040516101e3919061214e565b60405180910390f35b61020660048036038101906102019190611cc0565b610778565b005b610222600480360381019061021d9190611b36565b61078e565b60405161022f9190612284565b60405180910390f35b610252600480360381019061024d9190611c31565b610822565b005b61026e60048036038101906102699190611b0d565b6108c3565b005b60008073ffffffffffffffffffffffffffffffffffffffff168373ffffffffffffffffffffffffffffffffffffffff1614156102e1576040517f08c379a00000000000000000000000000000000000000000000000000000000081526004016102d890612301565b60405180910390fd5b60008083815260200190815260200160002060008473ffffffffffffffffffffffffffffffffffffffff1673ffffffffffffffffffffffffffffffffffffffff16815260200190815260200160002054905092915050565b60007fd9b67a26000000000000000000000000000000000000000000000000000000007bffffffffffffffffffffffffffffffffffffffffffffffffffffffff1916827bffffffffffffffffffffffffffffffffffffffffffffffffffffffff1916148061040457507f0e89341c000000000000000000000000000000000000000000000000000000007bffffffffffffffffffffffffffffffffffffffffffffffffffffffff1916827bffffffffffffffffffffffffffffffffffffffffffffffffffffffff1916145b80610414575061041382610947565b5b9050919050565b60606002805461042a906126b0565b80601f0160208091040260200160405190810160405280929190818152602001828054610456906126b0565b80156104a35780601f10610478576101008083540402835291602001916104a3565b820191906000526020600020905b81548152906001019060200180831161048657829003601f168201915b50505050509050919050565b6104b76109b1565b73ffffffffffffffffffffffffffffffffffffffff168573ffffffffffffffffffffffffffffffffffffffff1614806104fd57506104fc856104f76109b1565b61078e565b5b61053c576040517f08c379a000000000000000000000000000000000000000000000000000000000815260040161053390612321565b60405180910390fd5b61054985858585856109b9565b5050505050565b60608151835114610596576040517f08c379a000000000000000000000000000000000000000000000000000000000815260040161058d906123c1565b60405180910390fd5b6000835167ffffffffffffffff8111156105d9577f4e487b7100000000000000000000000000000000000000000000000000000000600052604160045260246000fd5b6040519080825280602002602001820160405280156106075781602001602082028036833780820191505090505b50905060005b84518110156106f6576106a0858281518110610652577f4e487b7100000000000000000000000000000000000000000000000000000000600052603260045260246000fd5b6020026020010151858381518110610693577f4e487b7100000000000000000000000000000000000000000000000000000000600052603260045260246000fd5b6020026020010151610270565b8282815181106106d9577f4e487b7100000000000000000000000000000000000000000000000000000000600052603260045260246000fd5b602002602001018181525050806106ef90612713565b905061060d565b508091505092915050565b610709610d27565b6107136000610da5565b565b600061071f610d27565b6107296004610e6b565b60006107356004610e81565b905061074385828686610e8f565b809150509392505050565b6000600360009054906101000a900473ffffffffffffffffffffffffffffffffffffffff16905090565b61078a6107836109b1565b8383611040565b5050565b6000600160008473ffffffffffffffffffffffffffffffffffffffff1673ffffffffffffffffffffffffffffffffffffffff16815260200190815260200160002060008373ffffffffffffffffffffffffffffffffffffffff1673ffffffffffffffffffffffffffffffffffffffff16815260200190815260200160002060009054906101000a900460ff16905092915050565b61082a6109b1565b73ffffffffffffffffffffffffffffffffffffffff168573ffffffffffffffffffffffffffffffffffffffff161480610870575061086f8561086a6109b1565b61078e565b5b6108af576040517f08c379a00000000000000000000000000000000000000000000000000000000081526004016108a690612321565b60405180910390fd5b6108bc85858585856111ad565b5050505050565b6108cb610d27565b600073ffffffffffffffffffffffffffffffffffffffff168173ffffffffffffffffffffffffffffffffffffffff16141561093b576040517f08c379a0000000000000000000000000000000000000000000000000000000008152600401610932906122e1565b60405180910390fd5b61094481610da5565b50565b60007f01ffc9a7000000000000000000000000000000000000000000000000000000007bffffffffffffffffffffffffffffffffffffffffffffffffffffffff1916827bffffffffffffffffffffffffffffffffffffffffffffffffffffffff1916149050919050565b600033905090565b81518351146109fd576040517f08c379a00000000000000000000000000000000000000000000000000000000081526004016109f4906123e1565b60405180910390fd5b600073ffffffffffffffffffffffffffffffffffffffff168473ffffffffffffffffffffffffffffffffffffffff161415610a6d576040517f08c379a0000000000000000000000000000000000000000000000000000000008152600401610a6490612341565b60405180910390fd5b6000610a776109b1565b9050610a87818787878787611449565b60005b8451811015610c84576000858281518110610ace577f4e487b7100000000000000000000000000000000000000000000000000000000600052603260045260246000fd5b602002602001015190506000858381518110610b13577f4e487b7100000000000000000000000000000000000000000000000000000000600052603260045260246000fd5b60200260200101519050600080600084815260200190815260200160002060008b73ffffffffffffffffffffffffffffffffffffffff1673ffffffffffffffffffffffffffffffffffffffff16815260200190815260200160002054905081811015610bb4576040517f08c379a0000000000000000000000000000000000000000000000000000000008152600401610bab90612361565b60405180910390fd5b81810360008085815260200190815260200160002060008c73ffffffffffffffffffffffffffffffffffffffff1673ffffffffffffffffffffffffffffffffffffffff168152602001908152602001600020819055508160008085815260200190815260200160002060008b73ffffffffffffffffffffffffffffffffffffffff1673ffffffffffffffffffffffffffffffffffffffff1681526020019081526020016000206000828254610c6991906125a4565b9250508190555050505080610c7d90612713565b9050610a8a565b508473ffffffffffffffffffffffffffffffffffffffff168673ffffffffffffffffffffffffffffffffffffffff168273ffffffffffffffffffffffffffffffffffffffff167f4a39dc06d4c0dbc64b70af90fd698a233a518aa5d07e595d983b8c0526c8f7fb8787604051610cfb92919061224d565b60405180910390a4610d11818787878787611451565b610d1f818787878787611459565b505050505050565b610d2f6109b1565b73ffffffffffffffffffffffffffffffffffffffff16610d4d61074e565b73ffffffffffffffffffffffffffffffffffffffff1614610da3576040517f08c379a0000000000000000000000000000000000000000000000000000000008152600401610d9a90612381565b60405180910390fd5b565b6000600360009054906101000a900473ffffffffffffffffffffffffffffffffffffffff16905081600360006101000a81548173ffffffffffffffffffffffffffffffffffffffff021916908373ffffffffffffffffffffffffffffffffffffffff1602179055508173ffffffffffffffffffffffffffffffffffffffff168173ffffffffffffffffffffffffffffffffffffffff167f8be0079c531659141344cd1fd0a4f28419497f9722a3daafe3b4186f6b6457e060405160405180910390a35050565b6001816000016000828254019250508190555050565b600081600001549050919050565b600073ffffffffffffffffffffffffffffffffffffffff168473ffffffffffffffffffffffffffffffffffffffff161415610eff576040517f08c379a0000000000000000000000000000000000000000000000000000000008152600401610ef690612401565b60405180910390fd5b6000610f096109b1565b90506000610f1685611640565b90506000610f2385611640565b9050610f3483600089858589611449565b8460008088815260200190815260200160002060008973ffffffffffffffffffffffffffffffffffffffff1673ffffffffffffffffffffffffffffffffffffffff1681526020019081526020016000206000828254610f9391906125a4565b925050819055508673ffffffffffffffffffffffffffffffffffffffff16600073ffffffffffffffffffffffffffffffffffffffff168473ffffffffffffffffffffffffffffffffffffffff167fc3d58168c5ae7397731d063d5bbf3d657854427343f4c083240f7aacaa2d0f62898960405161101192919061245c565b60405180910390a461102883600089858589611451565b61103783600089898989611706565b50505050505050565b8173ffffffffffffffffffffffffffffffffffffffff168373ffffffffffffffffffffffffffffffffffffffff1614156110af576040517f08c379a00000000000000000000000000000000000000000000000000000000081526004016110a6906123a1565b60405180910390fd5b80600160008573ffffffffffffffffffffffffffffffffffffffff1673ffffffffffffffffffffffffffffffffffffffff16815260200190815260200160002060008473ffffffffffffffffffffffffffffffffffffffff1673ffffffffffffffffffffffffffffffffffffffff16815260200190815260200160002060006101000a81548160ff0219169083151502179055508173ffffffffffffffffffffffffffffffffffffffff168373ffffffffffffffffffffffffffffffffffffffff167f17307eab39ab6107e8899845ad3d59bd9653f200f220920489ca2b5937696c31836040516111a09190612284565b60405180910390a3505050565b600073ffffffffffffffffffffffffffffffffffffffff168473ffffffffffffffffffffffffffffffffffffffff16141561121d576040517f08c379a000000000000000000000000000000000000000000000000000000000815260040161121490612341565b60405180910390fd5b60006112276109b1565b9050600061123485611640565b9050600061124185611640565b9050611251838989858589611449565b600080600088815260200190815260200160002060008a73ffffffffffffffffffffffffffffffffffffffff1673ffffffffffffffffffffffffffffffffffffffff168152602001908152602001600020549050858110156112e8576040517f08c379a00000000000000000000000000000000000000000000000000000000081526004016112df90612361565b60405180910390fd5b85810360008089815260200190815260200160002060008b73ffffffffffffffffffffffffffffffffffffffff1673ffffffffffffffffffffffffffffffffffffffff168152602001908152602001600020819055508560008089815260200190815260200160002060008a73ffffffffffffffffffffffffffffffffffffffff1673ffffffffffffffffffffffffffffffffffffffff168152602001908152602001600020600082825461139d91906125a4565b925050819055508773ffffffffffffffffffffffffffffffffffffffff168973ffffffffffffffffffffffffffffffffffffffff168573ffffffffffffffffffffffffffffffffffffffff167fc3d58168c5ae7397731d063d5bbf3d657854427343f4c083240f7aacaa2d0f628a8a60405161141a92919061245c565b60405180910390a4611430848a8a86868a611451565b61143e848a8a8a8a8a611706565b505050505050505050565b505050505050565b505050505050565b6114788473ffffffffffffffffffffffffffffffffffffffff166118ed565b15611638578373ffffffffffffffffffffffffffffffffffffffff1663bc197c8187878686866040518663ffffffff1660e01b81526004016114be959493929190612169565b602060405180830381600087803b1580156114d857600080fd5b505af192505050801561150957506040513d601f19601f820116820180604052508101906115069190611e34565b60015b6115af576115156127e9565b806308c379a01415611572575061152a612bb7565b806115355750611574565b806040517f08c379a0000000000000000000000000000000000000000000000000000000008152600401611569919061229f565b60405180910390fd5b505b6040517f08c379a00000000000000000000000000000000000000000000000000000000081526004016115a690612421565b60405180910390fd5b63bc197c8160e01b7bffffffffffffffffffffffffffffffffffffffffffffffffffffffff1916817bffffffffffffffffffffffffffffffffffffffffffffffffffffffff191614611636576040517f08c379a000000000000000000000000000000000000000000000000000000000815260040161162d906122c1565b60405180910390fd5b505b505050505050565b60606000600167ffffffffffffffff811115611685577f4e487b7100000000000000000000000000000000000000000000000000000000600052604160045260246000fd5b6040519080825280602002602001820160405280156116b35781602001602082028036833780820191505090505b50905082816000815181106116f1577f4e487b7100000000000000000000000000000000000000000000000000000000600052603260045260246000fd5b60200260200101818152505080915050919050565b6117258473ffffffffffffffffffffffffffffffffffffffff166118ed565b156118e5578373ffffffffffffffffffffffffffffffffffffffff1663f23a6e6187878686866040518663ffffffff1660e01b815260040161176b9594939291906121d1565b602060405180830381600087803b15801561178557600080fd5b505af19250505080156117b657506040513d601f19601f820116820180604052508101906117b39190611e34565b60015b61185c576117c26127e9565b806308c379a0141561181f57506117d7612bb7565b806117e25750611821565b806040517f08c379a0000000000000000000000000000000000000000000000000000000008152600401611816919061229f565b60405180910390fd5b505b6040517f08c379a000000000000000000000000000000000000000000000000000000000815260040161185390612421565b60405180910390fd5b63f23a6e6160e01b7bffffffffffffffffffffffffffffffffffffffffffffffffffffffff1916817bffffffffffffffffffffffffffffffffffffffffffffffffffffffff1916146118e3576040517f08c379a00000000000000000000000000000000000000000000000000000000081526004016118da906122c1565b60405180910390fd5b505b505050505050565b6000808273ffffffffffffffffffffffffffffffffffffffff163b119050919050565b600061192361191e846124aa565b612485565b9050808382526020820190508285602086028201111561194257600080fd5b60005b8581101561197257816119588882611a26565b845260208401935060208301925050600181019050611945565b5050509392505050565b600061198f61198a846124d6565b612485565b905080838252602082019050828560208602820111156119ae57600080fd5b60005b858110156119de57816119c48882611af8565b8452602084019350602083019250506001810190506119b1565b5050509392505050565b60006119fb6119f684612502565b612485565b905082815260208101848484011115611a1357600080fd5b611a1e84828561266e565b509392505050565b600081359050611a3581612c4d565b92915050565b600082601f830112611a4c57600080fd5b8135611a5c848260208601611910565b91505092915050565b600082601f830112611a7657600080fd5b8135611a8684826020860161197c565b91505092915050565b600081359050611a9e81612c64565b92915050565b600081359050611ab381612c7b565b92915050565b600081519050611ac881612c7b565b92915050565b600082601f830112611adf57600080fd5b8135611aef8482602086016119e8565b91505092915050565b600081359050611b0781612c92565b92915050565b600060208284031215611b1f57600080fd5b6000611b2d84828501611a26565b91505092915050565b60008060408385031215611b4957600080fd5b6000611b5785828601611a26565b9250506020611b6885828601611a26565b9150509250929050565b600080600080600060a08688031215611b8a57600080fd5b6000611b9888828901611a26565b9550506020611ba988828901611a26565b945050604086013567ffffffffffffffff811115611bc657600080fd5b611bd288828901611a65565b935050606086013567ffffffffffffffff811115611bef57600080fd5b611bfb88828901611a65565b925050608086013567ffffffffffffffff811115611c1857600080fd5b611c2488828901611ace565b9150509295509295909350565b600080600080600060a08688031215611c4957600080fd5b6000611c5788828901611a26565b9550506020611c6888828901611a26565b9450506040611c7988828901611af8565b9350506060611c8a88828901611af8565b925050608086013567ffffffffffffffff811115611ca757600080fd5b611cb388828901611ace565b9150509295509295909350565b60008060408385031215611cd357600080fd5b6000611ce185828601611a26565b9250506020611cf285828601611a8f565b9150509250929050565b60008060408385031215611d0f57600080fd5b6000611d1d85828601611a26565b9250506020611d2e85828601611af8565b9150509250929050565b600080600060608486031215611d4d57600080fd5b6000611d5b86828701611a26565b9350506020611d6c86828701611af8565b925050604084013567ffffffffffffffff811115611d8957600080fd5b611d9586828701611ace565b9150509250925092565b60008060408385031215611db257600080fd5b600083013567ffffffffffffffff811115611dcc57600080fd5b611dd885828601611a3b565b925050602083013567ffffffffffffffff811115611df557600080fd5b611e0185828601611a65565b9150509250929050565b600060208284031215611e1d57600080fd5b6000611e2b84828501611aa4565b91505092915050565b600060208284031215611e4657600080fd5b6000611e5484828501611ab9565b91505092915050565b600060208284031215611e6f57600080fd5b6000611e7d84828501611af8565b91505092915050565b6000611e928383612130565b60208301905092915050565b611ea7816125fa565b82525050565b6000611eb882612543565b611ec28185612571565b9350611ecd83612533565b8060005b83811015611efe578151611ee58882611e86565b9750611ef083612564565b925050600181019050611ed1565b5085935050505092915050565b611f148161260c565b82525050565b6000611f258261254e565b611f2f8185612582565b9350611f3f81856020860161267d565b611f488161280b565b840191505092915050565b6000611f5e82612559565b611f688185612593565b9350611f7881856020860161267d565b611f818161280b565b840191505092915050565b6000611f99602883612593565b9150611fa482612829565b604082019050919050565b6000611fbc602683612593565b9150611fc782612878565b604082019050919050565b6000611fdf602a83612593565b9150611fea826128c7565b604082019050919050565b6000612002602e83612593565b915061200d82612916565b604082019050919050565b6000612025602583612593565b915061203082612965565b604082019050919050565b6000612048602a83612593565b9150612053826129b4565b604082019050919050565b600061206b602083612593565b915061207682612a03565b602082019050919050565b600061208e602983612593565b915061209982612a2c565b604082019050919050565b60006120b1602983612593565b91506120bc82612a7b565b604082019050919050565b60006120d4602883612593565b91506120df82612aca565b604082019050919050565b60006120f7602183612593565b915061210282612b19565b604082019050919050565b600061211a603483612593565b915061212582612b68565b604082019050919050565b61213981612664565b82525050565b61214881612664565b82525050565b60006020820190506121636000830184611e9e565b92915050565b600060a08201905061217e6000830188611e9e565b61218b6020830187611e9e565b818103604083015261219d8186611ead565b905081810360608301526121b18185611ead565b905081810360808301526121c58184611f1a565b90509695505050505050565b600060a0820190506121e66000830188611e9e565b6121f36020830187611e9e565b612200604083018661213f565b61220d606083018561213f565b818103608083015261221f8184611f1a565b90509695505050505050565b600060208201905081810360008301526122458184611ead565b905092915050565b600060408201905081810360008301526122678185611ead565b9050818103602083015261227b8184611ead565b90509392505050565b60006020820190506122996000830184611f0b565b92915050565b600060208201905081810360008301526122b98184611f53565b905092915050565b600060208201905081810360008301526122da81611f8c565b9050919050565b600060208201905081810360008301526122fa81611faf565b9050919050565b6000602082019050818103600083015261231a81611fd2565b9050919050565b6000602082019050818103600083015261233a81611ff5565b9050919050565b6000602082019050818103600083015261235a81612018565b9050919050565b6000602082019050818103600083015261237a8161203b565b9050919050565b6000602082019050818103600083015261239a8161205e565b9050919050565b600060208201905081810360008301526123ba81612081565b9050919050565b600060208201905081810360008301526123da816120a4565b9050919050565b600060208201905081810360008301526123fa816120c7565b9050919050565b6000602082019050818103600083015261241a816120ea565b9050919050565b6000602082019050818103600083015261243a8161210d565b9050919050565b6000602082019050612456600083018461213f565b92915050565b6000604082019050612471600083018561213f565b61247e602083018461213f565b9392505050565b600061248f6124a0565b905061249b82826126e2565b919050565b6000604051905090565b600067ffffffffffffffff8211156124c5576124c46127ba565b5b602082029050602081019050919050565b600067ffffffffffffffff8211156124f1576124f06127ba565b5b602082029050602081019050919050565b600067ffffffffffffffff82111561251d5761251c6127ba565b5b6125268261280b565b9050602081019050919050565b6000819050602082019050919050565b600081519050919050565b600081519050919050565b600081519050919050565b6000602082019050919050565b600082825260208201905092915050565b600082825260208201905092915050565b600082825260208201905092915050565b60006125af82612664565b91506125ba83612664565b9250827fffffffffffffffffffffffffffffffffffffffffffffffffffffffffffffffff038211156125ef576125ee61275c565b5b828201905092915050565b600061260582612644565b9050919050565b60008115159050919050565b60007fffffffff0000000000000000000000000000000000000000000000000000000082169050919050565b600073ffffffffffffffffffffffffffffffffffffffff82169050919050565b6000819050919050565b82818337600083830152505050565b60005b8381101561269b578082015181840152602081019050612680565b838111156126aa576000848401525b50505050565b600060028204905060018216806126c857607f821691505b602082108114156126dc576126db61278b565b5b50919050565b6126eb8261280b565b810181811067ffffffffffffffff8211171561270a576127096127ba565b5b80604052505050565b600061271e82612664565b91507fffffffffffffffffffffffffffffffffffffffffffffffffffffffffffffffff8214156127515761275061275c565b5b600182019050919050565b7f4e487b7100000000000000000000000000000000000000000000000000000000600052601160045260246000fd5b7f4e487b7100000000000000000000000000000000000000000000000000000000600052602260045260246000fd5b7f4e487b7100000000000000000000000000000000000000000000000000000000600052604160045260246000fd5b600060033d11156128085760046000803e61280560005161281c565b90505b90565b6000601f19601f8301169050919050565b60008160e01c9050919050565b7f455243313135353a204552433131353552656365697665722072656a6563746560008201527f6420746f6b656e73000000000000000000000000000000000000000000000000602082015250565b7f4f776e61626c653a206e6577206f776e657220697320746865207a65726f206160008201527f6464726573730000000000000000000000000000000000000000000000000000602082015250565b7f455243313135353a2061646472657373207a65726f206973206e6f742061207660008201527f616c6964206f776e657200000000000000000000000000000000000000000000602082015250565b7f455243313135353a2063616c6c6572206973206e6f7420746f6b656e206f776e60008201527f6572206f7220617070726f766564000000000000000000000000000000000000602082015250565b7f455243313135353a207472616e7366657220746f20746865207a65726f20616460008201527f6472657373000000000000000000000000000000000000000000000000000000602082015250565b7f455243313135353a20696e73756666696369656e742062616c616e636520666f60008201527f72207472616e7366657200000000000000000000000000000000000000000000602082015250565b7f4f776e61626c653a2063616c6c6572206973206e6f7420746865206f776e6572600082015250565b7f455243313135353a2073657474696e6720617070726f76616c2073746174757360008201527f20666f722073656c660000000000000000000000000000000000000000000000602082015250565b7f455243313135353a206163636f756e747320616e6420696473206c656e67746860008201527f206d69736d617463680000000000000000000000000000000000000000000000602082015250565b7f455243313135353a2069647320616e6420616d6f756e7473206c656e6774682060008201527f6d69736d61746368000000000000000000000000000000000000000000000000602082015250565b7f455243313135353a206d696e7420746f20746865207a65726f2061646472657360008201527f7300000000000000000000000000000000000000000000000000000000000000602082015250565b7f455243313135353a207472616e7366657220746f206e6f6e2d4552433131353560008201527f526563656976657220696d706c656d656e746572000000000000000000000000602082015250565b600060443d1015612bc757612c4a565b612bcf6124a0565b60043d036004823e80513d602482011167ffffffffffffffff82111715612bf7575050612c4a565b808201805167ffffffffffffffff811115612c155750505050612c4a565b80602083010160043d038501811115612c32575050505050612c4a565b612c41826020018501866126e2565b82955050505050505b90565b612c56816125fa565b8114612c6157600080fd5b50565b612c6d8161260c565b8114612c7857600080fd5b50565b612c8481612618565b8114612c8f57600080fd5b50565b612c9b81612664565b8114612ca657600080fd5b5056fea26469706673582212200642f208fdd68478b808449748ec2beb3baf0388f909d2854360ff7d45957c6464736f6c6343000801003368747470733a2f2f6170692e6578616d706c652e636f6d2f6d657461646174612f7b69647d2e6a736f6e",
  "linkReferences": {},
  "deployedLinkReferences": {}
}